{
  "address": "0x9300c266C57c113cF53c02D3861C85F98954b22B",
  "abi": [
    {
      "inputs": [
        {
          "internalType": "address",
          "name": "xocolatl_",
          "type": "address"
        }
      ],
      "stateMutability": "nonpayable",
      "type": "constructor"
    },
    {
      "inputs": [],
      "name": "XocFaucet__dripUser_dryFaucet",
      "type": "error"
    },
    {
      "inputs": [],
      "name": "XocFaucet_giveMeXoc_oneDripPerDay",
      "type": "error"
    },
    {
      "inputs": [],
      "name": "XocFaucet_invalidInput",
      "type": "error"
    },
    {
      "anonymous": false,
      "inputs": [
        {
          "indexed": true,
          "internalType": "address",
          "name": "user",
          "type": "address"
        }
      ],
      "name": "Dripped",
      "type": "event"
    },
    {
      "anonymous": false,
      "inputs": [
        {
          "indexed": true,
          "internalType": "address",
          "name": "user",
          "type": "address"
        },
        {
          "indexed": false,
          "internalType": "uint256",
          "name": "timestamp",
          "type": "uint256"
        }
      ],
      "name": "TimedOutUntil",
      "type": "event"
    },
    {
      "inputs": [],
      "name": "FAUCET_DRIP",
      "outputs": [
        {
          "internalType": "uint256",
          "name": "",
          "type": "uint256"
        }
      ],
      "stateMutability": "view",
      "type": "function"
    },
    {
      "inputs": [],
      "name": "TIME_OUT",
      "outputs": [
        {
          "internalType": "uint256",
          "name": "",
          "type": "uint256"
        }
      ],
      "stateMutability": "view",
      "type": "function"
    },
    {
      "inputs": [],
      "name": "dripMeXoc",
      "outputs": [],
      "stateMutability": "nonpayable",
      "type": "function"
    },
    {
      "inputs": [
        {
          "internalType": "address",
          "name": "",
          "type": "address"
        }
      ],
      "name": "timeOuts",
      "outputs": [
        {
          "internalType": "uint256",
          "name": "",
          "type": "uint256"
        }
      ],
      "stateMutability": "view",
      "type": "function"
    },
    {
      "inputs": [],
      "name": "xocolatl",
      "outputs": [
        {
          "internalType": "contract IERC20",
          "name": "",
          "type": "address"
        }
      ],
      "stateMutability": "view",
      "type": "function"
    }
  ],
  "bytecode": {
    "object": "0x608060405234801561001057600080fd5b5060405161045538038061045583398101604081905261002f9161007b565b6001600160a01b038116610056576040516323fca45b60e01b815260040160405180910390fd5b600080546001600160a01b0319166001600160a01b03929092169190911790556100ab565b60006020828403121561008d57600080fd5b81516001600160a01b03811681146100a457600080fd5b9392505050565b61039b806100ba6000396000f3fe608060405234801561001057600080fd5b50600436106100575760003560e01c80630a79c1971461005c5780632a6377a91461007f57806342bde3c51461009f5780639c52fb4b146100ca578063ff14ea24146100d4575b600080fd5b61006c6843c33c19375648000081565b6040519081526020015b60405180910390f35b61006c61008d3660046102d3565b60016020526000908152604090205481565b6000546100b2906001600160a01b031681565b6040516001600160a01b039091168152602001610076565b6100d26100de565b005b61006c6201518081565b336000908152600160205260409020544281101561010b576100ff33610124565b61010833610266565b50565b60405163765a74d360e01b815260040160405180910390fd5b6000546040516370a0823160e01b81523060048201526843c33c193756480000916001600160a01b0316906370a0823190602401602060405180830381865afa158015610175573d6000803e3d6000fd5b505050506040513d601f19601f820116820180604052508101906101999190610303565b10156101b8576040516330bf796160e01b815260040160405180910390fd5b60005460405163a9059cbb60e01b81526001600160a01b0383811660048301526843c33c19375648000060248301529091169063a9059cbb906044016020604051808303816000875af1158015610213573d6000803e3d6000fd5b505050506040513d601f19601f82011682018060405250810190610237919061031c565b5060405133907f989aa3afc5d5336c646d1e824888b072e19aad50714104ddf321d04d936f664090600090a250565b6000610275426201518061033e565b3360009081526001602052604090819020829055519091506001600160a01b038316907fed591ab7210cf648e605828faecf7b16b95a7d6e5e4b029aa50f60fd6241f480906102c79084815260200190565b60405180910390a25050565b6000602082840312156102e557600080fd5b81356001600160a01b03811681146102fc57600080fd5b9392505050565b60006020828403121561031557600080fd5b5051919050565b60006020828403121561032e57600080fd5b815180151581146102fc57600080fd5b8082018082111561035f57634e487b7160e01b600052601160045260246000fd5b9291505056fea26469706673582212206e2d264b21b68233c32720f59f48341cadd59d18424b4a8bf352eea4e0ca39c064736f6c63430008170033",
    "linkReferences": {}
  },
  "methodIdentifiers": {
    "FAUCET_DRIP()": "0a79c197",
    "TIME_OUT()": "ff14ea24",
    "dripMeXoc()": "9c52fb4b",
    "timeOuts(address)": "2a6377a9",
    "xocolatl()": "42bde3c5"
  },
  "id": 18
}